:020000040800F2
:10000000B1AA010000000000000000000000000094
:1000100000000000000000000000000000000000E0
:1000200000000000000000000000000000000000D0
:1000300000000000000000000000000000000000C0
:1000400000000000000000000000000000000000B0
:1000500000000000000000000000000000000000A0
:100060000000000000000000000000000000000090
:100070000000000000000000000000000000000080
:100080000000000000000000000000000000000070
:100090000000000000000000000000000000000060
:1000A0000000000000000000000000000000000050
:1000B0000000000000000000000000000000000040
:1000C0000000000000000000000000000000000030
:1000D0000000000000000000000000000000000020
:1000E0000000000000000000000000000000000010
:1000F0000000000000000000000000000000000000
:1001000000000000000000000000000000000000EF
:1001100000000000000000000000000000000000DF
:1001200000000000000000000000000000000000CF
:1001300000000000000000000000000000000000BF
:1001400000000000000000000000000000000000AF
:100150000000000000000000000000007370043088
:10016000170500001305C5FF8545F605637BB5003F
:1001700089816378B500170500001305C5002E9529
:1001800002859302002073A0027D970200009382F3
:1001900062E773907230970200009382E27E739060
:1001A000C27E73E0C07E970200009382A2757390B6
:1001B000523097110018938161A71751001813014D
:1001C00061E4171500001305A5E397050018938552
:1001D00065E3170600181306262663FAC500832276
:1001E000050023A0550011059105E3EAC5FE17059A
:1001F0000018130565249705001893852524637757
:10020000B500232005001105E36DB5FE73F0023241
:1002100017150000130505B897100000E780E0B33C
:1002200097100000E78080BA0145814597000000E3
:10023000E780401917130000670023B301A073E0A3
:0C0240000232828073F0023282800000E3
:100280000406000002060000020600000606000048
:100290000020000002000000040000000200000036
:1002A0000010014000080140000801400018014012
:1002B0006E6D690A00000000747261700A0000002F
:1002C00000010202030303030404040404040404FD
:1002D00005050505050505050505050505050505CE
:1002E00006060606060606060606060606060606AE
:1002F000060606060606060606060606060606069E
:10030000070707070707070707070707070707077D
:10031000070707070707070707070707070707076D
:10032000070707070707070707070707070707075D
:10033000070707070707070707070707070707074D
:10034000080808080808080808080808080808082D
:10035000080808080808080808080808080808081D
:10036000080808080808080808080808080808080D
:1003700008080808080808080808080808080808FD
:1003800008080808080808080808080808080808ED
:1003900008080808080808080808080808080808DD
:1003A00008080808080808080808080808080808CD
:1003B00008080808080808080808080808080808BD
:1003C0004111014506C697000000E78060360545EB
:1003D00097000000E780C035094597000000E780DE
:1003E0002035014597000000E780C03B0945970094
:1003F0000000E78020391305400697000000E780E1
:10040000E044054597000000E780C03901459700AA
:100410000000E78020371305400697000000E780C2
:10042000E042094597000000E780C0370545970086
:100430000000E78020351305400697000000E780A4
:10044000E04045B7B70700009387070089CB371511
:100450000008130505D91713000067000390828078
:1004600093F7050113F3F50099C33363C300814784
:10047000854E3D4E930F800293028004A14813964F
:1004800027003397FE003318CE00758F1348F8FF0E
:100490003316C30001CF032F05003378E80133661C
:1004A0000601638EF5056388550410C18507E3983E
:1004B00017FD0148054FBD4E93028002930380044F
:1004C000414E3316FF0033970E01758E1347F7FF29
:1004D000B318030101CE832F45003377F70133E7CB
:1004E000E80063805502638A750058C185071108CA
:1004F000E399C7FD828018C94DBF10C9FDB758C91F
:100500006DB750C9DDB713576500B71702403E9766
:10051000144385473395A700558D08C3828093F512
:10052000F51F4CC1828093D7650093F7F73FAA97D8
:1005300088433355B50005898280B7170240984338
:10054000B706FFE0B1061367170098C3D843370614
:10055000F7EA7D16758FD8C39843B706F7FEFD16E8
:10056000758F98C39843B706FCFFFD16758F98C327
:10057000D843B70601DFFD16758FD8C323A607023F
:100580009843C165718F98C33707FF0098C794439C
:100590001387F5FF37160240CD8E94C3B7060200CD
:1005A00011A009C71C427D17F58FE5DFB717024080
:1005B0009843B7060200758F59CFD8433706C4DF7A
:1005C0007D16D8C3D843B7052920D8C3D8431367AD
:1005D0000740D8C3D44337170240F18ED4C3D04369
:1005E000B70600084D8ED0C3D057BD756D8ED0D7DD
:1005F000D057C165938515F14D8ED0D79043B7057F
:1006000000044D8E90C31C43F58FF5DF1C43370665
:100610000010B7160240D18F1CC3370700209C4240
:10062000F98FF5DF9C423706000137170240D18F62
:100630009CC2B70600021C43F58FF5DF5C43B7167A
:100640000240F19B5CC35C4393E727005CC3DC4240
:10065000A18BF5DF828001A0411122C43744014003
:1006600026C29375F50FAA841305048006C61304E9
:10067000048097000000E780C0EA9D45228597002E
:100680000000E78080EA75D9B24022442685924472
:100690004101828001114EC606CE22CC26CA4AC82C
:1006A000B28915C22E843389C500A94403450400CC
:1006B000050497000000E78060FA8347F4FF638C2D
:1006C0009700E31524FFF2406244D24442494E852C
:1006D000B24905618280354597000000E78000F847
:1006E000E31624FDCDB7B70700D1D8438843CC43E8
:1006F000E39DE5FE8280370700D223000700120544
:10070000B71700D2A30507003E9563F7A70023A003
:100710000700C107E3EDA7FE8280F327503093F76F
:1007200007FC93E737007390573082804111B70779
:10073000000822C49387072813142500A297884332
:1007400006C626C297000000E78020DC37070008B5
:10075000B70700081307072A93870729A29722974C
:10076000004384430D462285A686C14597000000BC
:10077000E78040CFB24004C82244924441018280C5
:1007800013172500B7070008370500089387072AC5
:1007900013050529BA973A959C43184198CB828056
:1007A00013172500B7070008370500089387072AA5
:1007B00013050529BA973A959C431841D8CB8280F6
:1007C000B7050008411115469385052B054506C65A
:1007D00097000000E780A066054597000000E780CD
:1007E000E07E4111856722C406C6FD172A84630195
:1007F000F502B705000815469385852B054597003A
:100800000000E780C063228597000000E780007C3D
:1008100097000000E78000FBE9BF411106C6970082
:100820000000E780C0D11305700597000000E78045
:10083000C0EC97000000E78080EEB2404101170352
:100840000000670003A08280797122D406D626D2E8
:100850002A8497000000E78040E92ACC2ECE97003A
:100860000000E78080E82AC42EC62247B2476246CD
:10087000F2466314E600E384F6FEB707002003A502
:100880008742930770031306803E3355F502814675
:10089000B33585023305850297000000E780E01537
:1008A000AA842E8497000000E78020E42247B24704
:1008B000B306E5403335D5009D8D36C8B387A540D6
:1008C0003ECA4246D246E3EF86FC6314D400E36B93
:1008D00096FCB25022549254456182800000000080
:1008E0000000000000000000000000000000000008
:1008F00000000000000000000000000000000000F8
:100900005D7106C012C216C41AC61EC82ACA2ECCF1
:1009100032CE36D03AD23ED442D646D872DA76DCDF
:100920007ADEFEC0F322103496C0F322003096C265
:10093000F322407C96C4732520348A8597000000FA
:10094000E78060EA864273901234964273900230D8
:10095000A6427390427C82401242A2423243C2437A
:100960005245E245724682561257A2573258C25833
:10097000525EE25E725F864F61617300203000005C
:10098000000000005D7106C012C216C41AC61EC85F
:100990002ACA2ECC32CE36D03AD23ED442D646D80F
:1009A00072DA76DC7ADEFEC073D0E87E7350F97EB0
:1009B00073D0B97EF390D07E73700430B6427390DA
:1009C000427CA64273901234964273902234824045
:1009D0001242A2423243C2435245E2457246825617
:1009E0001257A2573258C258525EE25E725F864F6B
:1009F000616173002030AA88AE87328836854683CD
:100A000063960620B70600089386062C63FFC50A86
:100A100041676375E60A1307F00F3337C7000E0707
:100A20003355E600AA9683C60600130500023697E2
:100A3000B306E540630BE500B395D70033D7E80074
:100A40003318D600D98D3393D80093580801B3D604
:100A500015031316080141829357030133F7150359
:100A60003685B305D6024207D98F63FCB700C2971B
:100A70001385F6FF63E7070163F5B7001385E6FF0B
:100A8000C2978D8F33F71703420313530301B3D774
:100A90001703420733636700B306F6023E86637BA3
:100AA000D30042931386F7FF636603016374D30098
:100AB0001386E7FF4205518D81455DA8370500018A
:100AC0004147E36FA6F46147A1BF01E605473358EC
:100AD000C7024167637FE8081307F00F63730701DC
:100AE00021453357A800BA9603C706001306000233
:100AF0002A97B306E6406315E608B38707418545A4
:100B00009358080113160801418213570301B3F6E5
:100B10001703B3D71703C206558F330EF6023E856F
:100B2000637CC70142971385F7FF6367070163750D
:100B3000C7011385E7FF42973307C741B377170310
:100B400042031353030133571703C20733E367000C
:100B5000B306E6023A86637BD30042931306F7FF9F
:100B6000636603016374D3001306E7FF4205518DEA
:100B70008280370700014145E365E8F6614595B796
:100B80003318D80033D5E7003393D800B397D70094
:100B900033D7E800935808013366F700337715031D
:100BA00093170801C1839355060133551503420776
:100BB0004D8FB386A702AA85637CD7004297930521
:100BC000F5FF636707016375D7009305E5FF42975B
:100BD000B306D74033F7160342064182B3D6160355
:100BE00042073385D702B367C700368763FCA70087
:100BF000C2971387F6FF63E7070163F5A700138722
:100C0000E6FFC297C205898FD98DDDBD63E2D51499
:100C1000416763FFE6021307F00FB335D7008E0577
:100C20003707000833D5B6001307072C2A97034768
:100C30000700130500022E97B305E5406311E50296
:100C40000545E3E7F6F233B5C800134515000DB7C7
:100C500037070001C145E3E5E6FCE145D1B733586C
:100C6000E600B396B6003368D80033DEE700935E43
:100C70000801B376DE03B397B70033D7E800331328
:100C8000B6003366F70093170801C18313570601B6
:100C9000335EDE03C206558F338FC7037285637CD4
:100CA000E70142971305FEFF636707016375E701DC
:100CB0001305EEFF42973307E741B376D703335767
:100CC000D703C206338EE70293170601C183D58F7F
:100CD0003A8663FCC701C2971306F7FF63E7070173
:100CE00063F5C7011306E7FFC2974205C16E518D38
:100CF0009386FEFF3378D50013560501B376D300F3
:100D000013530301B387C741330ED802B306D6028B
:100D100013570E013308680236984297330666026D
:100D20006373D700769693560701369663E0C70241
:100D3000E394C7D8C167FD177D8F4207337EFE005D
:100D4000B398B80072978145E3F4E8E27D15ADB33E
:100D50008145014531BDAA858146014601451703FC
:100D60000000670083134111814522C406C62A840E
:100D700097000000E7806019B707002003A507432C
:100D80005C5D91C38297228597000000E780002474
:100D9000411122C4B7170008371400081304C4FF18
:100DA0009387C7FF818F26C206C693D4274081C888
:100DB000F1173E941C40FD1471148297E5FCB2407B
:100DC0002244924441018280411122C44AC0371416
:100DD000000837190008930784FF130989FF3309B6
:100DE000F94006C626C213592940630B09001304B3
:100DF00084FF81441C40850411048297E31C99FE02
:100E00003714000837190008930784FF1309C9FF36
:100E10003309F94013592940630B0900130484FF77
:100E200081441C40850411048297E31C99FEB24062
:100E30002244924402494101828037070020AA8758
:100E40000325C742B2862E86BE85170300006700C1
:100E5000830041112E8722C426C2B2852A84B7049A
:100E6000002036863A8506C623AA04429700000071
:100E7000E7808082FD576307F500B2402244924428
:100E80004101828083A74443EDDBB2401CC0224471
:100E9000924441018280B707002003A707438327BC
:100EA0008714A1C3D8437D48634DE8041318270075
:100EB0001DC1338307012324C30883A8871805466F
:100EC0003316E600B3E8C80023A417192324D3106F
:100ED0008946630DD5000507D8C3C2978CC7014565
:100EE00082809307C7142324F7146DBF83A6C71805
:100EF0000507D8C3558E23A6C718C2978CC70145CE
:100F000082807D5582807971B707002052CC03AA78
:100F100007434AD006D603298A1422D426D24ECEBD
:100F200056CA5AC85EC662C4630809022A8BAE8BD1
:100F3000854AFD59832449001384F4FF634E04005D
:100F40008A04CA9463860B0283A7441063827703E2
:100F50007D14F114E31834FFB25022549254025914
:100F6000F249624AD24A424BB24B224C45618280DE
:100F700083274900D440FD176382870423A204001D
:100F8000E1DA8327891833978A00032C4900F98F07
:100F900089EF82960327490083278A146314870107
:100FA000E38827FBD5DB3E8971B78327C91883A562
:100FB00044087D8F19E75A858296E9BF232289006C
:100FC000C1B72E858296F9B79308D005730000004B
:100FD0006343050001A0411122C42A8406C63304DC
:100FE000804097000000E780C00000C101A0B70763
:080FF000002003A5C742828026
:040FF80044040008A5
:100FFC0000000000EC02002054030020BC03002081
:10100C0000000000000000000000000000000000D4
:10101C0000000000000000000000000000000000C4
:10102C0000000000000000000000000000000000B4
:10103C0000000000000000000000000000000000A4
:10104C000000000000000000000000000000000094
:10105C000000000000000000000000000000000084
:10106C000000000000000000000000000000000074
:10107C000000000000000000000000000000000064
:10108C000000000000000000000000000000000054
:10109C000000000000000000010000000000000043
:1010AC000E33CDAB34126DE6ECDE05000B00000008
:1010BC000000000000000000000000000000000024
:1010CC000000000000000000000000000000000014
:1010DC000000000000000000000000000000000004
:1010EC0000000000000000000000000000000000F4
:10141C00000000000000000000F36F060000002038
:04142C00000000209C
:040000050800015C92
:00000001FF
